:100000000C94D7170C9401180C9401180C94011837
:100010000C9401180C9401180C9401180C940118FC
:100020000C9401180C9401180C9401180C940118EC
:100030000C9401180C94507D0C9401180C94011828
:100040000C9401180C94778B0C94E4C40C94011854
:100050000C9403180C9401180C9401180C940118BA
:100060000C9401180C9401180C9401180C940118AC
:100070000C9401180C9401180C9401180C9401189C
:100080000C9401180C9401180C940118648A738A5A
:10009000928AA18ABC8AC18AC48AC98ACC8AD18A36
:1000A000D48AD98AE38A0AC60FC614C61EC64CC6AD
:1000B0004CC628C630C638C642C669C66CC65FC6BE
:1000C00063C683C683C670C674C67AC67EC6084A2F
:1000D000D73B3BCE016E84BCBFFDC12F3D6C74315C
:1000E0009ABD56833DDA3D00C77F11BED9E4BB4CB3
:1000F0003E916BAAAABE000000803F05A84CCDB27D
:10010000D44EB93836A9020C50B9918688083CA65D
:10011000AAAA2ABE000000803F00446F6E652073CB
:100120006176696E672066696C652E0A004D32390A
:10013000002020506C616E6E657242756666657255
:1001400042797465733A20002046726565204D65DA
:100150006D6F72793A2000436F6D70696C65643A17
:100160002041707220313720323031370A00207C34
:1001700020417574686F723A20284C756361732C46
:10018000204D522D524544290A00323031362D304F
:10019000372D32362031323A303000204C617374C2
:1001A00020557064617465643A2000312E312E3020
:1001B0002D52434275674669780A004D61726C6939
:1001C0006E0020536F6674776172652052657365A7
:1001D000740A00205761746368646F672052657306
:1001E00065740A002042726F776E206F757420521A
:1001F000657365740A002045787465726E616C20C1
:1002000052657365740A00506F77657255700A0005
:1002100073746172740A005072696E74657220683A
:10022000616C7465642E206B696C6C282920636195
:100230006C6C6564210A004166676562726F6B656C
:100240006E2E200020746F6F206C6F6E67206578B3
:1002500074727573696F6E2070726576656E746501
:10026000640A0020636F6C6420657874727573692A
:100270006F6E2070726576656E7465640A006F6BD0
:1002800000526573656E643A200048206F6666739D
:10029000657420746F656765702E004572723A2030
:1002A000546F6F206661722100546F6F2066617217
:1002B0002066726F6D207265666572656E6365207B
:1002C000706F696E740A0043290A0061626C65648C
:1002D00020286D696E2074656D702000436F6C641A
:1002E00020657874727564657320617265200020E2
:1002F000643A0020693A0020703A00205A002059E0
:1003000000580020204D61783A2000205A002059E2
:1003100000580020204D696E3A2000556974004154
:10032000616E2000536F667420656E6473746F7025
:10033000733A200053657474696E67205472617655
:10034000656C20416363656C65726174696F6E3AB8
:10035000200053657474696E67205265747261631E
:100360007420416363656C65726174696F6E3A20D5
:100370000053657474696E67205072696E74204111
:100380006363656C65726174696F6E3A20005365D2
:100390007474696E67205072696E7420616E642097
:1003A00054726176656C20416363656C657261743B
:1003B000696F6E3A20004D31343520533C696E64CC
:1003C00065783E206F7574206F662072616E676578
:1003D0002028302D31290A004649524D57415245B7
:1003E0005F4E414D453A4D61726C696E20312E3140
:1003F0002E302D524342756746697820284769742C
:100400006875622920534F555243455F434F444519
:100410005F55524C3A68747470733A2F2F67697441
:100420006875622E636F6D2F4D61726C696E4669DF
:10043000726D776172652F4D61726C696E205052DA
:100440004F544F434F4C5F56455253494F4E3A31EC
:100450002E30204D414348494E455F545950453A4E
:100460004D525F5245442045585452554445525FC1
:10047000434F554E543A3120555549443A636564CB
:1004800065326132662D343161322D343734382D86
:10049000396231322D63353563363266333637662D
:1004A000660A004D525F524544205569742E004241
:1004B000656420697320766F6F72766572772E009F
:1004C0003F0A0020573A0042656420766F6F7276CB
:1004D0006572772E00566F6F72766572772E206B7D
:1004E0006F6D706C2E003F0A0020573A00566F6FF8
:1004F000727761726D656E2E2E2E004D525F5245E1
:1005000044206765726565642E006F6B004D313164
:10051000332053004166676562726F6B656E2E20F3
:10052000004543484F00494E464F004552524F52F6
:10053000530044525952554E00434F4D4D554E496C
:10054000434154494F4E006F666600210526052B36
:10055000053205390544454255473A00566F6F72DA
:100560007761726D656E2E2E2E004D525F5245449E
:10057000206765726565642E0050726F74656374E0
:1005800065642050696E0A002569730025696D2035
:10059000256973002569682025696D202569730028
:1005A000256964202569682025696D202569730007
:1005B00025697920256964202569682025696D20D1
:1005C000256973005072696E742074696D653A20F4
:1005D00000456E642066696C65206C6973740A005E
:1005E000426567696E2066696C65206C6973740A80
:1005F000004765656E206265776567696E672E00E6
:100600004D525F524544206765726565642E005007
:1006100072696E742068657276617474656E0057D5
:1006200061636874656E2E2E2E0020453A00205AB4
:100630003A0020593A00583A005761726E696E6765
:100640003A20486F6D696E672042756D702044696D
:100650007669736F72203C20310A00536C617065BB
:100660006E2E2E2E0047322F473320626164207099
:100670006172616D65746572730A004163746976B5
:10068000652045787472756465723A200020424096
:100690003A0020403A00202F0020423A00202F004C
:1006A00020543A00627573793A20706175736564FD
:1006B00020666F7220696E7075740A0062757379B6
:1006C0003A2070617573656420666F72207573657A
:1006D000720A00627573793A2070726F6365737382
:1006E000696E670A00556E6B6E6F776E20636F6D73
:1006F0006D616E643A20220020496E76616C6964F7
:1007000020657874727564657220005344207265A8
:100710006164206572726F720A00446F6E652070AA
:1007200072696E74696E672066696C650A0041665D
:10073000676562726F6B656E2E2000476573746F1C
:1007400070742E20005072696E7465722073746F1D
:10075000707065642064756520746F206572726FB7
:1007600072732E2046697820746865206572726FF6
:100770007220616E6420757365204D39393920749B
:100780006F20726573746172742E202854656D70C9
:100790006572617475726520697320726573657422
:1007A0002E2053657420697420616674657220720E
:1007B000657374617274696E67290A004E6F204C0C
:1007C000696E65204E756D62657220776974682068
:1007D000636865636B73756D2C204C617374204C7A
:1007E000696E653A20004E6F20436865636B7375D0
:1007F0006D2077697468206C696E65206E756D6216
:1008000065722C204C617374204C696E653A20002F
:10081000636865636B73756D206D69736D61746377
:10082000682C204C617374204C696E653A20004C32
:10083000696E65204E756D626572206973206E6FFA
:1008400074204C617374204C696E65204E756D6226
:1008500065722B312C204C617374204C696E653AA3
:1008600020004D31313000656E7175657565696EBA
:1008700067202200FFFF010000A0400000A0400010
:100880000000400000484300004843000057430078
:100890000000000000000000005743000048430033
:1008A0000048430000574300000000000000000023
:1008B0000000006563686F3A004572726F723A001B
:1008C00000002110422063308440A550C660E770CC
:1008D000088129914AA16BB18CC1ADD1CEE1EFF174
:1008E0003112100273325222B5529442F772D6621C
:1008F000399318837BB35AA3BDD39CC3FFF3DEE3C4
:100900006224433420040114E664C774A44485546B
:100910006AA54BB528850995EEE5CFF5ACC58DD513
:100920005336722611163006D776F6669556B446BB
:100930005BB77AA719973887DFF7FEE79DD7BCC763
:10094000C448E5588668A77840086118022823380B
:10095000CCC9EDD98EE9AFF9488969990AA92BB9B3
:10096000F55AD44AB77A966A711A500A333A122A5B
:10097000FDDBDCCBBFFB9EEB799B588B3BBB1AAB03
:10098000A66C877CE44CC55C222C033C600C411CAB
:10099000AEED8FFDECCDCDDD2AAD0BBD688D499D53
:1009A000977EB66ED55EF44E133E322E511E700EFB
:1009B0009FFFBEEFDDDFFCCF1BBF3AAF599F788FA3
:1009C0008891A981CAB1EBA10CD12DC14EF16FE183
:1009D0008010A100C230E3200450254046706760BB
:1009E000B9839893FBA3DAB33DC31CD37FE35EF3D3
:1009F000B1029012F322D23235421452776256720B
:100A0000EAB5CBA5A89589856EF54FE52CD50DC522
:100A1000E234C324A014810466744764245405445A
:100A2000DBA7FAB79987B8975FE77EF71DC73CD772
:100A3000D326F2369106B0165766767615463456AA
:100A40004CD96DC90EF92FE9C899E9898AB9ABA9C2
:100A50004458654806782768C018E1088238A328FA
:100A60007DCB5CDB3FEB1EFBF98BD89BBBAB9ABB12
:100A7000754A545A376A167AF10AD01AB32A923A4A
:100A80002EFD0FED6CDD4DCDAABD8BADE89DC98D62
:100A9000267C076C645C454CA23C832CE01CC10C9A
:100AA0001FEF3EFF5DCF7CDF9BAFBABFD98FF89FB2
:100AB000176E367E554E745E932EB23ED10EF01EEA
:100AC0007C3C3E5E2B3D3F2F5B5D3B2C2A225C0035
:100AD0004D3331004D383420582059205A204500DC
:100AE00043616E6E6F7420656E74657220737562FB
:100AF0006469723A20006175746F25692E6700651C
:100B000072726F722077726974696E6720746F20D9
:100B100066696C650A004E6F7420534420707269D8
:100B20006E74696E670A005344207072696E74694E
:100B30006E672062797465200044656C6574696F26
:100B40006E206661696C65642C2046696C653A208C
:100B50000046696C652064656C657465643A006F75
:100B600070656E206661696C65642C2046696C65F1
:100B70003A200057726974696E6720746F20666945
:100B80006C653A20006F70656E206661696C656403
:100B90002C2046696C653A20006F70656E20666196
:100BA000696C65642C2046696C653A200046696C66
:100BB000652073656C65637465640A002053697A07
:100BC000653A200046696C65206F70656E65643A11
:100BD00020006F70656E206661696C65642C20462C
:100BE000696C653A20002066696C653A20004E6F9A
:100BF0007720002220706F73002220706172656E72
:100C0000743A2200535542524F5554494E452043A1
:100C1000414C4C207461726765743A2200416667EA
:100C20006562726F6B656E2E2000747279696E67F3
:100C300020746F2063616C6C207375622D67636F25
:100C400064652066696C6573207769746820746FC9
:100C50006F206D616E79206C6576656C732E204D0A
:100C60004158206C6576656C2069733A004D3234CA
:100C7000004D323320257300534420636172642099
:100C80006F6B0A006F70656E526F6F7420666169DA
:100C90006C65640A00766F6C756D652E696E69749B
:100CA000206661696C65640A00534420696E69744A
:100CB000206661696C0A0043616E6E6F74206F700C
:100CC000656E20737562646972200020204D323099
:100CD000302044300A0020204D32303020440020A3
:100CE00044697361626C65640A0046696C616D6594
:100CF0006E742073657474696E67733A00204400E3
:100D000020490020204D33303120500050494420EC
:100D100073657474696E67733A0A00204600204256
:100D20000020204D3134352053312048002046002A
:100D300020420020204D3134352053302048004DD2
:100D40006174657269616C2068656174757020708A
:100D50006172616D65746572733A0A00205A0020F1
:100D6000590020204D323036205800486F6D6520E4
:100D70006F666673657420286D6D290A0020450032
:100D8000205A002059002058002042002054002002
:100D9000204D323035205300416476616E636564C6
:100DA000207661726961626C65733A20533D4D69CA
:100DB0006E20666565647261746520286D6D2F73A1
:100DC000292C20543D4D696E2074726176656C202B
:100DD000666565647261746520286D6D2F73292CBA
:100DE00020423D6D696E696D756D207365676D6537
:100DF0006E742074696D6520286D73292C20583D10
:100E00006D6178696D756D205859206A65726B2027
:100E1000286D6D2F73292C20205A3D6D6178696DE6
:100E2000756D205A206A65726B20286D6D2F7329AD
:100E30002C2020453D6D6178696D756D2045206AD7
:100E400065726B20286D6D2F73290A0020540020D5
:100E5000520020204D323034205000416363656CD5
:100E600065726174696F6E733A20503D7072696E7D
:100E700074696E672C20523D7265747261637420D0
:100E8000616E6420543D74726176656C0A00204581
:100E900000205A0020590020204D323031205800C7
:100EA0004D6178696D756D20416363656C65726134
:100EB00074696F6E20286D6D2F7332293A0A0020F5
:100EC0004500205A0020590020204D323033205850
:100ED000004D6178696D756D206665656472617439
:100EE000657320286D6D2F73293A0A002045002074
:100EF0005A0020590020204D393220580053746583
:100F000070732070657220756E69743A0A004861CA
:100F10007264636F6465642044656661756C7420F7
:100F200053657474696E6773204C6F616465640AFD
:100F300000454550524F4D20636865636B73756D76
:100F4000206D69736D617463680A0020627974654D
:100F500073290A002073746F72656420736574745A
:100F6000696E67732072657472696576656420289E
:100F700000206279746573290A0053657474696E80
:100F800067732053746F7265642028004572726F16
:100F9000722077726974696E6720746F20454550BE
:100FA000524F4D210A007A5F6D61783A2000795FD7
:100FB0006D696E3A2000785F6D696E3A2000526567
:100FC000706F7274696E6720656E6473746F7020E1
:100FD0007374617475730A00456E6473746F707313
:100FE00020256320256320256320256300205A3AAD
:100FF0000020593A0020583A00656E6473746F708F
:1010000073206869743A200020746F6F206C6F6ED3
:101010006720657874727573696F6E20707265767B
:10102000656E7465640A0020636F6C642065787473
:10103000727573696F6E2070726576656E74656423
:101040000A00205A3A0020593A0020436F756E7406
:1010500020583A20004D383420582059205A204535
:101060000024F4D43050C38E20C2A24017828B706B
:1010700011127A910D816CD90AA861E108C75866EE
:1010800007615143061E4B5D05C145A7041A411176
:1010900004093D9803713931034036DB0265339111
:1010A00002D4305402802E1D02632CEE01752AC535
:1010B00001B028A001102781018F2564012B244B4A
:1010C00001E0223401AC211F018D200D01801FFCA5
:1010D00000841EED00971DDF00B81CD200E61BC681
:1010E00000201BBC00641AB200B219A8000A19A0A3
:1010F000006A189900D117910040178B00B516842B
:101100000031167E00B31579003A157300C7146FCD
:101110000058146A00EE1366008813630025135EFE
:1011200000C7125B006C12570015125400C1115118
:101130000070114F0021114B00D61049008D10474F
:10114000004610440002104200C00F4000800F3ED5
:1011500000420F3C00060F3B00CB0E3800930E37C9
:10116000005C0E3500270E3400F30D3200C10D3146
:1011700000900D3000600D2E00320D2D00050D2C5D
:1011800000D90C2B00AE0C2900850C29005C0C2723
:1011900000350C27000E0C2600E80B2400C40B249D
:1011A00000A00B23007D0B23005A0B2100390B21DB
:1011B00000180B2000F80A1F00D90A1E00BB0A1EE7
:1011C000009D0A1D00800A1D00630A1C00470A1BBF
:1011D000002C0A1B00110A1A00F7091A00DD091970
:1011E00000C4091900AB091900920917007B0918FE
:1011F00000630917004C091600360916002009166D
:10120000000A091500F5081500E0081400CC0814C0
:1012100000B8081400A4081400900813007D0812F8
:10122000006B081300580812004608120034081119
:1012300000230811001208110001081100F0071026
:1012400000E0071000D0071000C0071000B0070F23
:1012500000A107100091070E0083070F0074070F0D
:101260000065070E0057070E0049070E003B070DEB
:10127000002E070E0020070D0013070D0006070DB6
:1012800000F9060C00ED060D00E0060C00D4060C7B
:1012900000C8060C00BC060C00B0060C00A4060B2F
:1012A0000099060C008D060B0082060B0077060BDA
:1012B000006C060B0061060A0057060B004C060A7C
:1012C0000042060A0038060A002E060A0024060A12
:1012D000001A060A001006090007060A00FD0509A3
:1012E00000F4050900EB050900E2050900D905092C
:1012F00000D0050900C7050900BE050900B50508AD
:1013000000AD050800A50509009C05080094050826
:10131000008C050800840508007C05080074050899
:10132000006C050700650508005D05070056050807
:10133000004E05070047050700400508003805076F
:1013400000310507002A050700230507001C0506D4
:1013500000160507000F050700080506000205072F
:1013600000FB040600F5040700EE040600E804068E
:1013700000E2040700DB040600D5040600CF0406E3
:1013800000C9040600C3040600BD040600B7040635
:1013900000B1040500AC040600A6040600A0040584
:1013A000009B04060095040500900406008A0405CD
:1013B0000085040500800406007A04050075040514
:1013C00000700405006B0405006604050061040557
:1013D000005C04050057040500520405004D040597
:1013E0000048040500430405003E0404003A0405D7
:1013F0000035040500300404002C04050027040413
:1014000000230405001E0404001A04040016040549
:1014100000110404000D0404000904050004040480
:101420000000040400FC030400F8030400F40304B7
:1014300000F0030400EC030400E8030400E40304E8
:1014400000E0030400DC030400D8030400D4030418
:1014500000D0030400CC030400C8030300C5030349
:101460000024F404D9201BC40C5C0E9804C4095F4A
:101470000265077101F405F900FB04B30048048715
:1014800000C10369005803550003034500BE023A3A
:10149000008402310053022A0029022500040220A0
:1014A00000E4011C00C8011900AF011700980114E5
:1014B0000084011300710110006101100051010E40
:1014C0000043010D0036010B002B010B0020010B26
:1014D00000150109000C01090003010800FB0008C8
:1014E00000F3000800EB000700E4000600DE000641
:1014F00000D8000600D2000600CC000500C7000599
:1015000000C2000500BD000400B9000400B50004DD
:1015100000B1000400AD000400A9000400A5000310
:1015200000A20003009F0004009B0003009800033A
:10153000009500020093000300900003008D00025C
:10154000008B000300880002008600020084000374
:1015500000810002007F0002007D0002007B00028B
:10156000007900020077000100760002007400029A
:101570000072000100710002006F0002006D0001A6
:10158000006C0002006A00010069000200670001AF
:1015900000660001006500010064000200620001B5
:1015A0000061000100600001005F0002005D0001B9
:1015B000005C0001005B0001005A000100590001BD
:1015C00000580001005700010056000100550001BD
:1015D00000540001005300000053000100520001BC
:1015E0000051000100500001004F0001004E0000BA
:1015F000004E0001004D0001004C0001004B0000B6
:10160000004B0001004A00010049000100480000B1
:1016100000480001004700010046000000460001AC
:1016200000450000004500010044000100430000A7
:1016300000430001004200000042000100410000A0
:101640000041000100400001003F0000003F000198
:10165000003E0000003E0001003D0000003D000192
:10166000003C0000003C0000003C0001003B00008A
:10167000003B0001003A0000003A00010039000080
:101680000039000100380000003800000038000177
:10169000003700000037000100360000003600006F
:1016A0000036000100350000003500000035000163
:1016B000003400000034000000340001003300005A
:1016C000003300000033000100320000003200004F
:1016D0000032000100310000003100000031000143
:1016E000003000000030000000300001002F00003A
:1016F000002F0000002F0000002F0001002E00002E
:10170000002E0000002E0001002D0000002D000022
:10171000002D0000002D0001002C0000002C000016
:10172000002C0000002C0001002B0000002B00000A
:10173000002B0000002B0001002A0000002A0000FE
:10174000002A0000002A00010029000000290000F2
:1017500000290000002900000029000100280000E5
:1017600000280000002800000028000000280001D8
:1017700000270000002700000027000000270000CD
:1017800000270001002600000026000000260000BF
:1017900000260000002600010025000000250000B2
:1017A00000250000002500000025000000250001A4
:1017B0000024000000240000002400000024000099
:1017C000002400010023000000230000002300008B
:1017D000002300000023000000230000002300017C
:1017E0000022000000220000002200000022000071
:1017F0000022000000220001002100000021000062
:101800000021000000210000002100000021000054
:101810000021000100200000002000000020000046
:101820000020000000200000002000000020000038
:1018300000200001001F0000001F0000001F00002A
:10184000001F0000001F0000001F0000001F00011B
:10185000001E0000001E0000001E0000001E000010
:1018600000546865726D616C2052756E61776179A4
:1018700000546865726D2E207765676C6F6F70001D
:1018800048656174696E67206661696C656400769D
:101890006F6F72766572772E20666F75740048657B
:1018A0006174696E67206661696C656400766F6F4C
:1018B00072766572772E20666F7574004D494E54AE
:1018C000454D5020747269676765726564004572A2
:1018D000723A204D696E2E746D7020626564004509
:1018E00072723A204D696E2E2074656D70004D4104
:1018F0005854454D5020747269676765726564007D
:101900004572723A204D61782E746D702062656464
:10191000004572723A204D61782E2074656D70001A
:101920006265640A002C2073797374656D2073748A
:101930006F7070656421204865617465725F494409
:101940003A200023646566696E652020444546415F
:10195000554C545F4B64200023646566696E6520B6
:101960002044454641554C545F4B69200023646533
:1019700066696E65202044454641554C545F4B7066
:101980002000504944204175746F74756E6520665F
:10199000696E697368656421205075742074686588
:1019A000206C617374204B702C204B6920616E6435
:1019B000204B6420636F6E7374616E747320667263
:1019C0006F6D2062656C6F7720696E746F20436F56
:1019D0006E66696775726174696F6E2E680A005071
:1019E0004944204175746F74756E65206661696C39
:1019F0006564212074696D656F75740A00504944EF
:101A0000204175746F74756E65206661696C6564DC
:101A1000212054656D706572617475726520746FF4
:101A20006F20686967680A00204B643A2000204BE9
:101A3000693A2000204B703A20000A20436C617301
:101A400073696320504944200A002054753A2000ED
:101A5000204B753A2000206D61783A2000206D6996
:101A60006E3A200020643A200020626961733A20B7
:101A70000070012C0190012701B0012201C0011D5D
:101A800001F00118011002130130020E0160020979
:101A90000190020401C002FF000003FA004003F5B8
:101AA000008003F000D003EB002004E6007004E1A6
:101AB00000E004DC004005D700C005D2004006CDA0
:101AC00000D006C8008007C3003008BE00F008B987
:101AD00000C009B400B00AAF00B00BAA00D00CA53A
:101AE00000000EA000500F9B00C0109600501291F5
:101AF0000000148C00C0158700B0178200B0197D5B
:101B000000D01B7800001E730040206E00902269F8
:101B100000F024640040275F0090295A00E02B5514
:101B200000102E500020304B0010324600E03341B0
:101B30000090353C001037370070383200A0392D46
:101B400000B03A2800A03B2300603C1E00103D1965
:101B500000903D1400103E0F00703E0A00C03E058C
:101B600000003F00004D33303320553120452569BA
:101B700020532569004D3432380009200025753A7C
:101B80002530327500253032753A25303275002502
:101B9000756420253032753A25303275005A005967
:101BA000005800466C6F7700466C6F770046616E98
:101BB00020736E656C686569640046616E20736EA3
:101BC000656C686569640042656400426564004E46
:101BD0006F7A7A6C65004E6F7A7A6C6500536E6529
:101BE0006C6865696400536E656C6865696400487B
:101BF0006F6F66646D656E7500566572706C6161BD
:101C00007473205800566572706C6161747320594A
:101C100000566572706C61617473205A0045787467
:101C200072756465720045787472756465720056E9
:101C30006572706C61617473205A00566572706CC5
:101C400061617473205900566572706C61617473C0
:101C5000205800417320766572706C616174736501
:101C60006E00566572706C6161747320302E316D38
:101C70006D00566572706C6161747320316D6D001A
:101C8000566572706C616174732031306D6D0056F1
:101C90006F6F72626572656964656E00504C4120B9
:101CA000766F6F72766572772E2042656400504CB5
:101CB0004120766F6F727665727761726D656E0026
:101CC000566F6F72626572656964656E004142535A
:101CD00020766F6F72766572772E204265640041C0
:101CE000425320766F6F727665727761726D656EA2
:101CF00000566F6F72626572656964656E00416659
:101D00006B6F656C656E0041425320766F6F727623
:101D100065727761726D656E00504C4120766F6F11
:101D2000727665727761726D656E004D3834004D64
:101D30006F746F72656E20756974004173207665EB
:101D400072706C61617473656E005A657420686F9F
:101D50006D65206F666673657473004732380041A5
:101D600075746F20686F6D6500486F6F66646D6590
:101D70006E7500476568657567656E206F70736C7A
:101D800061616E0042656400426564004E6F7A7A5C
:101D90006C65004E6F7A7A6C650046616E20736EDA
:101DA000656C686569640046616E20736E656C6879
:101DB0006569640054656D70657261747575720053
:101DC000476568657567656E206F70736C61616EDD
:101DD0000042656400426564004E6F7A7A6C65006B
:101DE0004E6F7A7A6C650046616E20736E656C6822
:101DF0006569640046616E20736E656C6865696430
:101E00000054656D7065726174757572004142535E
:101E100020766572772E20636F6E6600504C4120ED
:101E2000766572772E20636F6E66005049442041BC
:101E300075746F74756E6500504944204175746FF8
:101E400074756E65005049442D44005049442D443A
:101E5000005049442D49005049442D4900504944FF
:101E60002D50005049442D500008204661637400F5
:101E70000820466163740008204D61780008204DF9
:101E800061780008204D696E0008204D696E0041A0
:101E900075746F74656D70005569740041616E20D2
:101EA0000046616E20736E656C686569640046610A
:101EB0006E20736E656C68656964004265640042FB
:101EC0006564004E6F7A7A6C65004E6F7A7A6C6545
:101ED00000436F6E74726F6C004573746570732F7E
:101EE0006D6D004573746570732F6D6D005A73745A
:101EF0006570732F6D6D005A73746570732F6D6DFF
:101F0000005973746570732F6D6D0059737465702B
:101F1000732F6D6D005873746570732F6D6D00585D
:101F200073746570732F6D6D00412D7472617665E9
:101F30006C00412D74726176656C00412D72657480
:101F40007261637400412D72657472616374004143
:101F50006D6178204500416D6178204500416D61DB
:101F600078205A00416D6178205A00416D617820D7
:101F70005900416D6178205900416D617820580009
:101F8000416D61782058005654726176206D696EFB
:101F9000005654726176206D696E00566D696E0050
:101FA000566D696E00566D6178204500566D6178FA
:101FB000204500566D6178205A00566D6178205A90
:101FC00000566D6178205900566D61782059005691
:101FD0006D6178205800566D617820580056652D47
:101FE0006A65726B0056652D6A65726B00567A2DB4
:101FF0006A65726B00567A2D6A65726B0056792D90
:102000006A65726B0056792D6A65726B0056782D81
:102010006A65726B0056782D6A65726B0056657240
:10202000736E00566572736E00436F6E74726F6CE0
:102030000046696C2E204469612E0046696C2E2092
:102040004469612E004520696E206D6D330055692D
:10205000740041616E2000436F6E74726F6C004EAD
:102060006F6F6473746F7020726573657400476579
:1020700068657567656E206C6164656E00476568AC
:10208000657567656E206F70736C61616E0046697F
:102090006C616D656E74004265776567696E670097
:1020A00054656D706572617475757200486F6F6606
:1020B000646D656E7500022E2E00015665727665A0
:1020C000727300486F6F66646D656E75004D3231D6
:1020D00000496E69742E205344206B616172740054
:1020E0004765656E205344206B61617274004D3208
:1020F0003100566572762E205344204B6161727414
:10210000005072696E742076616E205344005072E4
:10211000696E742073746F7070656E005072696EB2
:10212000742068657276617474656E005072696EB1
:1021300074207061757A6572656E00436F6E74729B
:102140006F6C00566F6F72626572656964656E00D0
:1021500041667374656C6C656E00496E666F2073C2
:10216000636865726D00506C65617365207265739C
:102170006574005052494E5445522048414C5445D4
:10218000440000060900FE070192032120FFFF081A
:10219000FF07FF000000060000010707060200809D
:1021A000808080800080030202060105A0A0050750
:1021B000070600005050F850F85050050707060079
:1021C000002078A07028F020050707060000C0C88E
:1021D00010204098180507070600006090A040A84E
:1021E0009068020303060104C0408003070706014C
:1021F00000204080808040200307070601008040C7
:10220000202020408005050506000120A870A82098
:102210000505050600012020F82020020303060220
:10222000FFC04080050101060003F8020202060219
:1022300000C0C00505050600010810204080050704
:1022400007060000708888888888700307070601E1
:102250000040C040404040E005070706000070888D
:1022600008708080F8050707060000F810201008A5
:1022700008F005070706000010305090F810100510
:102280000707060000F880F00808887005070706B1
:102290000000708080F0888870050707060000F84D
:1022A000081020202020050707060000708888708D
:1022B000888870050707060000708888780808700D
:1022C000020505060200C0C000C0C00206060602E4
:1022D000FFC0C000C0408004070706000010204077
:1022E00080402010050303060002F800F8040707E9
:1022F00006010080402010204080050707060000EE
:102300007088081020002005070706000070880864
:1023100068A8A870050707060000708888F88888F4
:1023200088050707060000F08888F08888F0050710
:102330000706000070888080808870050707060007
:1023400000F08888888888F0050707060000F88074
:1023500080F08080F8050707060000F88080F08094
:102360008080050707060000708880B8888870059F
:102370000707060000888888F8888888010707060C
:10238000020080808080808080050707060000387A
:102390001010101090600507070600008890A0C07C
:1023A000A09088050707060000808080808080F864
:1023B00005070706000088D8A888888888050707C9
:1023C0000600008888C8A8988888050707060000C6
:1023D00070888888888870050707060000F088885C
:1023E000F080808005070706000070888888A89024
:1023F00068050707060000F08888F0A090880507A8
:1024000007060000788080700808F00507070600BE
:1024100000F82020202020200507070600008888DB
:10242000888888887005070706000088888888885B
:1024300050200507070600008888888888A850056E
:10244000070706000088885020508888050707067F
:10245000000088888850202020050707060000F823
:102460000810204080F8030707060100E080808004
:102470008080E00505050600018040201008030764
:1024800007060100E02020202020E00503030600CD
:1024900004205088050101060000F802020206022D
:1024A0000580400505050600007008788878050756
:1024B000070600008080B0C88888F0050505060082
:1024C000007080808870050707060000080868987B
:1024D0008888780505050600007088F88070050773
:1024E000070600003048E040404040050606060070
:1024F000FF7088887808700507070600008080B0A4
:10250000C8888888010707060200800080808080D4
:10251000800308080601FF200020202020A040049E
:102520000707060000808090A0C0A0900307070660
:102530000100C04040404040E0050505060000D0D5
:10254000A8A8A8A8050505060000B0C888888805C1
:10255000050506000070888888700506060600FFDD
:10256000F08888F080800506060600FF7888887865
:102570000808050505060000B0C88080800505052F
:1025800006000070807008F0040707060000404055
:10259000E0404040300505050600008888889868BE
:1025A00005050506000088888850200505050600F9
:1025B000008888A8A850050505060000885020500E
:1025C000880506060600FF888888780870050505D6
:1025D000060000F8102040F803070706010020401D
:1025E00040804040200107070602008080808080F4
:1025F000808003070706010080404020404080059E
:1026000002020600026890000000060000000000C0
:1026100006000000000006000000000006000000A8
:102620000000060000000000060000000000060098
:10263000000000000600000000000600000000008E
:102640000600000000000600000000000600000078
:102650000000060000000000060000000000060068
:10266000000000000600000000000600000000005E
:102670000600000000000600000000000600000048
:102680000000060000000000060000000000060038
:10269000000000000600000000000600000000002E
:1026A0000600000000000600000000000600000018
:1026B0000000060000000000060000000000060008
:1026C00000000000060000000000060000000000FE
:1026D00006000001070706020080008080808080DD
:1026E0000507070600002070A8A0A87020050707AE
:1026F000060000304040E04050A8050505060000F7
:102700008870507088050707060000885020F82060
:10271000F820010707060200808080008080800585
:102720000808060000304820505020906003010146
:10273000060107A0050707060000F888B8B8B888A2
:10274000F8050707060001700878887800F8050585
:10275000050600012850A05028050303060001F8D3
:10276000080802020206020640800507070600006C
:10277000F888A88898A8F8050101060006F804045E
:102780000406000360909060050707060000202003
:10279000F8202000F804050506000360902040F0B2
:1027A000030505060003E020E020E0020202060225
:1027B0000640800508080600FF8888888898E88019
:1027C0008005070706000078989878181818020204
:1027D00002060202C0C00202020602FF4080030598
:1027E0000506000340C04040E005070706000170F1
:1027F0008888887000F8050505060001A05028505B
:10280000A00507070600008890A858B80808050723
:10281000070600008890B848982038050808060088
:1028200000C040C048D83808080507070600002047
:1028300000204080887005080806000040200070D5
:1028400088F888880508080600001020007088F8BD
:1028500088880508080600002050007088F88888DD
:102860000508080600006890007088F88888050848
:10287000080600005000708888F888880508080657
:1028800000002050207088F888880507070600009F
:102890003860A0B8E0A0B80508080600FF7088807E
:1028A0008088702060050808060000402000F8803D
:1028B000F080F8050808060000081000F880F08095
:1028C000F8050808060000205000F880F080F805A0
:1028D00007070600005000F880F080F8030808069B
:1028E0000100804000E0404040E00308080601008D
:1028F000204000E0404040E003080806010040A0FE
:1029000000E0404040E0030707060100A000E0406F
:102910004040E0050707060000704848E848487056
:1029200005080806000068900088C8A8988805086F
:10293000080600004020708888888870050808060E
:10294000000010207088888888700508080600003C
:10295000205000708888887005080806000068907C
:10296000007088888870050808060000500070888C
:102970008888887005050506000188502050880564
:1029800008080600FF1070A8A8A8A870400508084D
:10299000060000402088888888887005080806009E
:1029A00000102088888888887005080806000020A4
:1029B0005000888888887005080806000050008844
:1029C0008888888870050808060000102088502034
:1029D0002020200509090600FFC0407048487040CB
:1029E00040E00408080601FF609090A09090E0800D
:1029F000050808060000402000700878887805085F
:102A0000080600001020007008788878050808067D
:102A1000000020500070087888780508080600003B
:102A20006890007008788878050707060000500055
:102A30007008788878050808060000205020700883
:102A4000788878050606060000D02878A0A85005EA
:102A500006060600FF7080887020600508080600E2
:102A6000004020007088F8807005080806000010FB
:102A700020007088F88070050808060000205000CB
:102A80007088F8807005070706000050007088F80D
:102A9000807003080806010080400040C04040E00C
:102AA00003080806010020400040C04040E0030841
:102AB0000806010040A00040C04040E003070706B0
:102AC0000100A00040C04040E0050707060000A04C
:102AD00040A010788870050808060000689000B0D3
:102AE000C88888880508080600004020007088888B
:102AF000887005080806000010200070888888701B
:102B000005080806000020500070888888700508B5
:102B1000080600006890007088888870050707061E
:102B200000005000708888887005050506000120A7
:102B300000F800200507070600FF1070A8A8A8707D
:102B4000400508080600004020008888889868052D
:102B50000808060000102000888888986805080882
:102B6000060000205000888888986805070706003E
:102B700000500088888898680509090600FF102021
:102B800000888888F808700407070601FFC04060C5
:102B9000506040E00508080600FF500088888878EB
:102BA000087000060900FE0000000000010900088E
:102BB000FE000005080806000040F0C888889878E4
:102BC00010050808060000C0F88888888888F8057D
:102BD00005050600012030F8302005080806000031
:102BE0002070F820202020E00509090600FF207051
:102BF000A8A8B8888870200509090600FFE080C0F1
:102C0000B0A8283028280509090600FFF8A88888F8
:102C1000888888A8F8050A0A0600FE2050505050FF
:102C200088A8A8887003030306000340A0400000A2
:102C3000000000000000000000007FFFE000000036
:102C40000000000000000000007000E00000000034
:102C5000000000000000000061F8600000000000BB
:102C60000000000000000041F8200000000000000B
:102C700000000000000040F0200000000000000004
:102C80000000000000406020000000000000000084
:102C9000000000005801A07F80000000000000003C
:102CA0004104005C63A0FFC00000000000000020A1
:102CB00082005EF7A0FFC00000000000000020823C
:102CC000005EF7A0FFC0000000000000004104000B
:102CD0005C63A07F800000000000000082080058B4
:102CE00001A07F800000000000000104100040608F
:102CF00020FFC00000000000000104100040F02090
:102D0000FFC00000000000000082080041F820FF22
:102D1000C00000000000000041040061F8603F00B6
:102D2000000000000000000000007000E01E000035
:102D3000000000000001FFFF807FFFE00C000000AA
:102D40000000000001FFFF80000000000000000004
:102D5000000000000000007FFFE000000000000015
:102D60000000000000007000E00000000000000013
:102D70000000000000630C60000000000000000084
:102D800000000000470E20000000000000000000CE
:102D90000000004F0F2000000000000000000000B5
:102DA00000005F0FA0000000000000000000000015
:102DB000005E07A07F8000000000000000410400CA
:102DC000406020FFC00000000000000020820040A2
:102DD000F020FFC00000000000000020820040F052
:102DE00020FFC000000000000000410400406020FF
:102DF0007F80000000000000008208005E07A07FC6
:102E000080000000000000010410005F0FA0FFC060
:102E1000000000000000010410004F0F20FFC00060
:102E2000000000000000820800470E20FFC00000E4
:102E30000000000000410400630C603F000000003F
:102E4000000000000000007000E01E000000000014
:102E5000000001FFFF807FFFE00C00000000000089
:102E60000001FFFF800000001FFFFFFFFFFFFF606A
:102E70000000000001FF400000000000FF80000093
:102E80000000007F83CF00000C303F87FF80000CE4
:102E9000301F867980000C000F8C30C7838C30E7A0
:102EA0008C30CFC7CC31F38C30DCECEC33B98C30C8
:102EB000D86C6C33198C30D06C0C33198C30D86CC6
:102EC0000C33198C30DC6C0E3B198C30CF7C079F97
:102ED000198C30C77C038F1940000000000002608D
:102EE0000000000000061FFFFFFFFFFFF8000000CA
:102EF000010200090A0000000004030807000000A6
:102F000000000000000000000000000000010204BA
:102F100008102040800102040810204080010204B3
:102F200008102040800102040810204080020202A4
:102F3000020202020204040404040404040303035E
:102F4000030303030301010101010101010000204A
:102F50000023002600290000002200250028002B65
:102F60000000002100240027002A004E414E494E57
:102F7000495459494E46CDCCCC3D0AD7233C17B7CE
:102F8000D13877CC2B329595E6241FB14F0A00003B
:102F900020410000C84200401C4620BCBE4CCA1B59
:102FA0000E5AAEC59D7402405B774EBA1C40112488
:102FB0001FBECFEFD0E4DEBFCDBF13E0A0E0B1E095
:102FC000ECE8F7EA01E00BBF02C007900D92AA33CC
:102FD000B107D9F724E1AAE3B3E001C01D92A630FE
:102FE000B207E1F717E1C6EDD7E104C02197FE0172
:102FF0000E9407CCC33DD107C9F70E944CC70C946F
:10300000B9D30C9400001F920F920FB60F921124A7
:103010000BB60F922F933F938F939F93EF93FF9352
:103020002091C6009FB7F894E091BA0381E08E0F1B
:103030008F773091BB03831731F0F0E0E65CFC4FF3
:1030400020838093BA039FBFFF91EF919F918F914F
:103050003F912F910F900BBE0F900FBE0F901F90BE
:1030600018959B01AC01211581EE380741055105EA
:1030700049F182E08093C00060E079E08DE390E068
:103080000E94E8CBCA01B901615071098109910917
:1030900022E030E040E050E00E94E8CB3093C500F1
:1030A0002093C4008091C10080618093C100809111
:1030B000C10088608093C1008091C10080688093C6
:1030C000C10008951092C00020E130E0E7CF809168
:1030D000C00087FF14C02091C6009FB7F894E0910C
:1030E000BA0381E08E0F8F773091BB03831731F0E5
:1030F000F0E0E65CFC4F20838093BA039FBF089505
:103100008FB7F8949091BB032091BA03291759F017
:10311000E92FF0E0E65CFC4F208130E09F5F9F7775
:103120009093BB0302C02FEF3FEF8FBFC9010895FB
:103130002FB7F8948091BA039091BB032FBF891BDE
:103140008F7708958FB7F8949091BB039093BA034B
:103150008FBF08959091C00095FFFCCF8093C6006B
:1031600008958DE00E94AA188AE00C94AA188F9204
:103170009F92AF92BF92EF92FF921F93CF93DF93F4
:10318000CDB7DEB7A0970FB6F894DEBF0FBECDBFA8
:10319000611571058105910581F110E0842E912C56
:1031A000A12CB12CEE24E394F12CEC0EFD1EE10ECB
:1031B000F11C17FDFA94A50194010E94C6CBF701FA
:1031C0006083B901CA011F5F611571058105910511
:1031D00049F7115020F1E1E0F0E0EC0FFD1FE10FA5
:1031E000F11D17FDFA9580818A3010F097E301C038
:1031F00090E3890F0E94AA18ECCF80E3A0960FB647
:10320000F894DEBF0FBECDBFDF91CF911F91FF902D
:10321000EF90BF90AF909F908F900C94AA18A096BB
:103220000FB6F894DEBF0FBECDBFDF91CF911F91D7
:10323000FF90EF90BF90AF909F908F900895CF92A6
:10324000DF92EF92FF926B017C0197FF0BC08DE242
:103250000E94AA18F094E094D094C094C11CD11C90
:10326000E11CF11C4AE0C701B601FF90EF90DF902E
:10327000CF900C94B7184115510519F4862F0C9472
:10328000AA184A30510511F40C941F190C94B71860
:10329000AB01BC01990F880B990B0C943B1941159C
:1032A000510519F4862F0C94AA180C94B718AB0189
:1032B000BC0180E090E00E944F190C94B1188F92ED
:1032C0009F92AF92BF92CF92DF92EF92FF92CF93F5
:1032D0006B017C01B42E20E030E0A9010E9452C8AD
:1032E00087FF07C08DE20E94AA18F7FAF094F7F85A
:1032F000F094C0E060E070E080E09FE3CB1541F027
:103300002DEC3CEC4CEC5DE30E94B4CACF5FF6CFF1
:103310009B01AC01C701B6010E945DC76B017C0136
:103320000E94D5C84B015C014AE00E94B718CC232B
:1033300089F1C501B4010E9404C99B01AC01C70118
:10334000B6010E945CC76B017C018EE20E94AA1844
:1033500020E030E040E251E4C701B6010E94B4CA67
:103360004B015C010E94CEC86B01770FEE08FF088D
:10337000C701B6010E941F19C701B6010E9406C904
:103380009B01AC01C501B4010E945CC76B017C01CB
:10339000C150F1F6CF91FF90EF90DF90CF90BF90AA
:1033A000AF909F908F9008950C945F19FC016591E8
:1033B0007591859194910895CF93DF93E6E3F6E0BC
:1033C0008491EF012196882321F00E94AA18FE0122
:1033D000F7CF609148067091490680914A06909116
:1033E0004B0642E050E00E94D419E2E3F6E08491FB
:1033F000EF012196882321F00E94AA18FE01F7CF41
:1034000060914C0670914D0680914E0690914F064A
:1034100042E050E00E94D419EEE2F6E08491EF0120
:103420002196882321F00E94AA18FE01F7CF60910F
:10343000500670915106809152069091530642E0D9
:1034400050E00E94D419EAE2F6E08491EF0121965F
:10345000882321F00E94AA18FE01F7CF609154063C
:1034600070915506809156069091570642E050E0C3
:103470000E94D419DF91CF910C94927E8CE0E9E206
:10348000F4E0A8E4B6E001900D928A95E1F7089582
:103490000F931F93CF93DF93EC010E942EC50E81F3
:1034A0001F8128853985011511052105310559F53B
:1034B0002C852223A9F13A8521502C8721E0230F66
:1034C0002A874D85241301C01A86FE0124E0329F0D
:1034D000E00DF11D112406851785208931890A83A5
:1034E0001B832C833D83DC01CB01800F911FA11D29
:1034F000B11D8E839F83A887B9878C819D81892B7D
:1035000079F0149A0DC0DC01CB01801B910BA20B4A
:10351000B30BB7FD05C014981E821F82188619864A
:10352000DF91CF911F910F9108950E942EC5609356
:103530006604709367048093680490936904089507
:103540004F925F926F927F92AF92BF92CF92DF9233
:10355000EF92FF92CF93DF93EB01FC0160817181C9
:10356000828193812CE3C22ED12CE12CF12CA70176
:1035700096010E94C6CBB62EA72ECA01B901A7019B
:1035800096010E94C6CB6B017C01CA01B90128E1FA
:1035900030E040E050E00E94C6CB2B013C01C90165
:1035A0006DE671E00E949ECB61157105D9F0AF9276
:1035B000BF92DF92CF925F924F929F938F937F93B0
:1035C0006F9380EB95E09F938F93DF93CF930E944F
:1035D000C9D08DB79EB70E960FB6F8949EBF0FBE9A
:1035E0008DBF61C00097C9F0AF92BF92DF92CF92BA
:1035F0005F924F929F938F9380EA95E09F938F9372
:10360000DF93CF930E94C9D0EDB7FEB73C960FB6BB
:10361000F894FEBF0FBEEDBF46C0411451046104D3
:103620007104B9F0AF92BF92DF92CF925F924F9246
:1036300084E995E09F938F93DF93CF930E94C9D045
:103640008DB79EB70A960FB6F8949EBF0FBE8DBF7A
:103650002AC0C114D104E104F104A9F0AF92BF92D1
:10366000DF92CF928CE895E09F938F93DF93CF9377
:103670000E94C9D0EDB7FEB738960FB6F894FEBFDA
:103680000FBEEDBF10C0AF92BF9288E895E09F9348
:103690008F93DF93CF930E94C9D00F900F900F901C
:1036A0000F900F900F90DF91CF91FF90EF90DF90F0
:1036B000CF90BF90AF907F906F905F904F900895A4
:1036C000EF92FF920F931F93CF93DF93EC017B0157
:1036D0008A019C852D8592130AC0E881F9810190A9
:1036E000F081E02DCE0109950E94B288F2CFF7015A
:1036F00060817181F801408151818B85FE0134E048
:10370000839FE00DF11D11243E96718360835383E6
:1037100042839F5F9C878F5F821711F08B8701C068
:103720001B86DF91CF911F910F91FF90EF9008952D
:103730000F931F93CF93DF9300D0CDB7DEB7FC017B
:1037400084918F010F5F1F4F811102C08B0108C050
:1037500069837A830E94AA18F80169817A81F0CF7F
:10376000F80181918F01882319F00E94AA18F8CFDF
:103770000F900F90DF91CF911F910F9108950F93AC
:103780001F93CF93DF938B01FC018491EF0121966E
:10379000882321F00E94AA18FE01F7CF6AE070E0AA
:1037A000C801DF91CF911F910F910C944819CF92CE
:1037B000DF92EF92FF92CF93DF936A017B01FC01CE
:1037C0008491EF012196882321F00E94AA18FE011E
:1037D000F7CF4AE050E0C701B601DF91CF91FF90EB
:1037E000EF90DF90CF900C943B19CF92DF92EF9245
:1037F000FF92CF93DF936A017B01FC018491EF017B
:103800002196882321F00E94AA18FE01F7CF42E0FA
:1038100050E0C701B601DF91CF91FF90EF90DF90AC
:10382000CF900C94D419CF92DF92EF92FF92CF9366
:10383000DF936A017B01FC018491EF0121968823CB
:1038400021F00E94AA18FE01F7CF42E050E0C70124
:10385000B601DF91CF91FF90EF90DF90CF900C9465
:10386000D419CF92DF92EF92FF92CF93DF936A0148
:103870007B01FC018491EF012196882321F00E94B5
:10388000AA18FE01F7CF4AE050E0C701B601DF9168
:10389000CF91FF90EF90DF90CF900C944F1924E5DB
:1038A00036E040E556E06CE476E088E496E00C947F
:1038B000AE75AF92BF92CF92DF92EF92FF920F93CD
:1038C0001F93CF93DF9300D000D0CDB7DEB779013F
:1038D0005C01AA0CBB1CAA0CBB1CC501885B994FE0
:1038E0006C01FC01108211821282138249835A8377
:1038F0006B837C830E944F1C49815A816B817C8140
:10390000F6014083518362837383C0906D0420E08D
:1039100030E0A901B801C7010E9452C8811108C056
:10392000F501E95AFD4F308121819281838104C0E4
:10393000302F212F9E2D8F2DE32EF22E092F182FA1
:1039400024E536E040E556E06CE476E088E496E075
:103950000E94A16B0E94C87D1092F70A0F900F90F1
:103960000F900F90DF91CF911F910F91FF90EF90EB
:10397000DF90CF90BF90AF9008958091A80480937E
:10398000A9041092A70408952091A80430E0F90139
:10399000EB5DFB4F80832F5F3F4F237033272093D6
:1039A000A8048091A7048F5F8093A7040895CF9304
:1039B000FC0180818B33A9F08091A704843088F4C6
:1039C000C62FBF018091A80420E6829FC001112468
:1039D00086559B4F0E94A5D08C2F0E94C41C81E06D
:1039E00001C080E0CF910895EF92FF921F93CF9393
:1039F000DF937C010E94D71C182F8823B1F0E3EBE2
:103A0000F8E08491EF012196882321F00E94AA1802
:103A1000FE01F7CFB70187E698E00E94981B82E28B
:103A20000E94AA188AE00E94AA18812FDF91CF91E4
:103A30001F91FF90EF900895DF92EF92FF920F9306
:103A40001F93CF93DF93CDB7DEB76E970FB6F89481
:103A5000DEBF0FBECDBF60919F047091A0046115C1
:103A6000710551F14DE150E0CE0101967C010E94BB
:103A700034D01E8EF7018F010E191F09D190DD2061
:103A800019F09AE0D912F7CFF701E00FF11F108279
:103A900060E0C7010E94F41C882371F0DD20A9F0CA
:103AA0000F5F1F4F80919F049091A004080F191F72
:103AB0001093A00400939F0481E020919F04309113
:103AC000A004232B39F480E005C01092A0041092CA
:103AD0009F04F2CF6E960FB6F894DEBF0FBECDBF37
:103AE000DF91CF911F910F91FF90EF90DF9008959C
:103AF0009093A00480939F040C941C1D0F931F931C
:103B0000CF93DF93C091A104D091A20465E470E04B
:103B1000CE010E9491D08C01CE01019601151105B4
:103B200071F0F801108260E070E00E9439CC25E469
:103B3000F8012083DF91CF911F910F91089560E0EC
:103B400070E0DF91CF911F910F910C9439CC80914F
:103B5000A1049091A2044AE050E060E070E0019678
:103B60000C94D3CE8091A1049091A2044AE050E03D
:103B700060E070E001960C94A8CD8091A104909132
:103B8000A2044AE050E060E070E001960E94A8CDF7
:103B9000CB0108958091A1049091A2044AE050E0E5
:103BA00060E070E001960E94D3CECB010895809131
:103BB000A1049091A2044AE050E060E070E0019618
:103BC0000E94A8CD97FD1EC08091A1049091A204EF
:103BD0004AE050E060E070E001960E94A8CD6F3F9F
:103BE00071058105910509F07CF48091A104909103
:103BF000A2044AE050E060E070E001960E94A8CD87
:103C0000862F089580E008958FEF0895E091A10434
:103C1000F091A204818121E030E0803239F42F5FFD
:103C20003F4FDF01A20FB31F8C91F7CF8D3211F000
:103C30008B3231F42F5F3F4FDF01A20FB31F8C9106
:103C40008E3219F4E20FF31F818180538A3038F4E9
:103C50000E94D71D91E0811103C090E001C091E066
:103C6000892F08950C947E1D0C947E1D0E947E1D4C
:103C700020E030E04AE754E40E94B4CA0E94D5C86C
:103C80000895682F880F770B8091A3049091A40466
:103C90000E9491D09C019093A2048093A10481E0A2
:103CA000232B09F480E00895EF92FF921F93CF93A6
:103CB000DF937C0184E50E94411E182F882349F17F
:103CC0000E94D71D8823F9F0E3EBF8E08491EF011F
:103CD0002196882321F00E94AA18FE01F7CF8DE4D7
:103CE0000E94AA186AE070E0C7010E9448190E9469
:103CF000D71D682F70E088EF96E00E94BF1B8AE016
:103D00000E94AA180AC00E94D71D8093350410E0B3
:103D100004C080916D0480933504812FDF91CF9191
:103D20001F91FF90EF900895CF92DF92EF92FF9254
:103D30000F931F93CF93DF93EC01CC0FDD1FCC0FBC
:103D4000DD1FFE01E458FB4F20E030E0A901608157
:103D50007181828193810E945DC7FE01E857FB4F0C
:103D600020813181428153810E945DC76B017C01BA
:103D7000CE018955974F0E94D6198E0100591B4FCD
:103D8000A70196010E945DC7F80160837183828359
:103D90009383CE018556974F0E94D619C95FDE4F97
:103DA000A70196010E945DC7688379838A839B83FC
:103DB000DF91CF911F910F91FF90EF90DF90CF9007
:103DC00008954F925F926F927F928F929F92AF92DF
:103DD000BF92CF92DF92EF92FF920F931F93CF93F8
:103DE000DF9300D000D000D0CDB7DEB76C01FC016E
:103DF000EC58F74F14917C01EE0CFF1CEE0CFF1CED
:103E0000C7018D57974F0E94D6194B015C01612F56
:103E1000110F770B880B990B0E9406C92B013C01EF
:103E200020E030E040EC5FE3C501B4010E94B4CA79
:103E3000A30192010E94B4CAAB01BC0100E010E0F2
:103E40009801C6010E94591CC7018958974F0E94CA
:103E5000D6199B01AC01C301B2010E94B4CA4B0147
:103E60005C0120E030E0A9010E9452C8882309F4D7
:103E70005AC000E010E09801B501A4017058C601D5
:103E80000E94591C86E0E9EAF1E0DE0111960190FA
:103E90000D928A95E1F7F601EE0FFF1F81E090E0A9
:103EA0008C0F9D1FE80FF91F80819181181619064C
:103EB000D4F0E3EBF8E084918F010F5F1F4F88236C
:103EC00021F00E94AA18F801F6CFE9E3F6E0849108
:103ED0008F010F5F1F4F882321F00E94AA18F8015D
:103EE000F6CF8AE090E0BC01990F880B990B0E94F5
:103EF00006C99B01AC01F701E95AFD4F6081718150
:103F0000828193810E945CC82B013C01A501940130
:103F1000C501B4010E945DC7AB01BC0193018201E0
:103F2000C6010E94591CF601EB5CF94F81E08083C9
:103F3000F601EE5CF94F8083F701E857FB4F5F0114
:103F40001082118212821382C6010E94941EC70140
:103F50008157974F0E94D6198701085B194FF701C7
:103F6000E458FB4F20813181428153810E945DC71B
:103F7000F50120813181428153810E945DC7F801A2
:103F800060837183828393830E944F1C9701285C16
:103F9000394FF80180819181A281B381F901808339
:103FA0009183A283B38326960FB6F894DEBF0FBE2B
:103FB000CDBFDF91CF911F910F91FF90EF90DF90D8
:103FC000CF90BF90AF909F908F907F906F905F90B9
:103FD0004F900895CF92EF92FF920F931F93C0904E
:103FE0006D047B018C0124E436E040E456E06CE390
:103FF00076E088E396E00E94A16B1F910F91FF90FD
:10400000EF90CF90089580E1E8E3F6E0A8E4B6E011
:1040100001900D928A95E1F70895BF92CF92DF92B9
:10402000EF92FF920F931F93CF93DF9388E3E82ED5
:1040300086E0F82E08E416E095E9C92E94E0D92E22
:10404000C3E5D2E0BC2E84E0B80E89910E94411EE7
:104050008823D9F00E947E1DF6012081211104C021
:1040600020916C04222331F0F801208131814281BA
:10407000538103C020E030E0A9010E945DC7F70131
:1040800060837183828393830AC0F8018081918168
:10409000A281B381F70180839183A283B383F4E08B
:1040A000EF0EF11C0C5F1F4F8FEFC81AD80ABC121D
:1040B000CCCF86E40E94411E8823C9F00E947E1D59
:1040C00020E030E0A9010E9474CA181684F40E940E
:1040D0007E1D20E030E040E752E40E945CC860931F
:1040E0002001709321018093220190932301DF919D
:1040F000CF911F910F91FF90EF90DF90CF90BF90E5
:104100000895CF93DF93E3EBF8E08491EF012196DC
:10411000882321F00E94AA18FE01F7CF6091A50420
:104120007091A60485EE96E00E94981B82E20E94A0
:10413000AA188AE0DF91CF910C94AA18CF92DF924F
:10414000EF92FF920F931F93CF93DF930E942EC5A0
:104150006B017C0180910001882309F465C0809186
:10416000230490912404009709F45EC040911F0439
:1041700050912004609121047091220497018601DE
:10418000041B150B260B370B37FD61C083309105DF
:1041900009F134F401970CF447C0E3EBF8E006C0F2
:1041A000049709F041C0E3EBF8E02AC08491EF01E5
:1041B0002196882321F00E94AA18FE01F7CFE3ED93
:1041C000F6E08491EF012196882371F10E94AA18EC
:1041D000FE01F7CFE3EBF8E08491EF01219688230D
:1041E00021F00E94AA18FE01F7CFECEBF6E08491D3
:1041F000EF0121968823C1F00E94AA18FE01F7CF93
:104200008491EF012196882321F00E94AA18FE01D3
:10421000F7CFE4EAF6E08491EF012196882321F0BC
:104220000E94AA18FE01F7CF2091000130E0A8EE0D
:10423000B3E00E9410CCC60ED71EE81EF91EC09235
:104240001F04D0922004E0922104F0922204DF9116
:10425000CF911F910F91FF90EF90DF90CF90089535
:104260001F93CF93DF930E94C87D8091200190918E
:104270002101A0912201B091230180939B0490938E
:104280009C04A0939D04B0939E0480911E01909184
:104290001F0190939A048093990484E690E0909390
:1042A0001F0180931E010E94951AC1E0C093250151
:1042B00088E50E94411E182F89E50E94411ED82FD3
:1042C0008AE50E94411E111105C0D11105C0982F29
:1042D0009C2705C0D11102C090E001C0982F909397
:1042E000010120E1E8E4F6E0A8E3B6E001900D92D8
:1042F0002A95E1F7911102C0882321F082E090E035
:104300000E94E11E80910101811102C0112321F060
:1043100080E090E00E94E11E80910101811102C0C5
:10432000DD2321F081E090E00E94E11E0E944F1CFD
:104330008091F80A8093250180919B0490919C04C0
:10434000A0919D04B0919E0480932001909321013F
:10435000A0932201B09323018091990490919A0433
:1043600090931F0180931E010E94951ADF91CF91B7
:104370001F910C94DC198F929F92AF92BF92CF92B3
:10438000DF92EF92FF920F931F93CF93DF9300D0B2
:1043900000D0CDB7DEB785E40E94411ED82E811132
:1043A00002C00E94C87D83E5A82E82E0B82E98E85E
:1043B000E92E94E0F92E08E416E0812C912CC12C12
:1043C000F50181915F010E94411E882369F1F80186
:1043D000208131814281538129833A834B835C83DD
:1043E0000E947E1DF80160837183828393832981FB
:1043F0003A814B815C81F3E08F169104A9F00E9411
:104400005CC79B01AC01F70160817181828193815E
:104410000E945DC7F7016083718382839383C40127
:104420000E94941ECC24C394FFEF8F1A9F0A84E04D
:10443000E80EF11C0C5F1F4FE4E08E16910409F0AA
:10444000BFCFCC2019F00E944F1C08C0DD2031F0F6
:1044500064E576E083E090E00E9466760F900F902E
:104460000F900F90DF91CF911F910F91FF90EF90E0
:10447000DF90CF90BF90AF909F908F900C94DC19FD
:104480000F931F93CF93DF93CDB7DEB769970FB626
:10449000F894DEBF0FBECDBF84E594E00E94417F5B
:1044A0006E8B7F8B888F998FBE016F5F7F4FCE01A0
:1044B00046960E94A01A60E0CE0101960E9423B6A3
:1044C000E3EBF8E084918F010F5F1F4F882321F009
:1044D0000E94AA18F801F6CFBE016F5F7F4F84ECEF
:1044E00095E00E94981B8AE00E94AA188091270BF1
:1044F0008823F9F01092270B6091091170910A112D
:10450000072E000C880B990B0E9406C920912A01E6
:1045100030912B0140912C0150912D010E9474CAC1
:1045200018163CF410920A111092091180E00E94B2
:10453000EF8269960FB6F894DEBF0FBECDBFDF9154
:10454000CF911F910F9108951F93CF93DF93809187
:104550005B0681110E94C87DC091A304D091A40480
:1045600061E270E0CE010E9491D0009711F0EC0161
:10457000219680E50E94411E882341F011E0809140
:10458000A1049091A2048C179D0708F010E080917F
:104590005C06882389F1212F41E0BE0189E596E080
:1045A0000E94A85783E50E94411E882339F080911C
:1045B000A1049091A2048C179D0768F089E596E00C
:1045C0000E946754111118C084E594E0DF91CF91E7
:1045D0001F910C946E7F0E94B21DAB01BC014093F1
:1045E000D7085093D8086093D9087093DA0886E208
:1045F00098E00E944A46E2CFDF91CF911F91089543
:104600000F931F93CF93DF9383E50E94411E88236E
:1046100009F44BC00E94BD1D8C018F3F910511F024
:1046200008F043C080E50E94411E882331F00E94BB
:10463000BD1DEC0197FD39C002C0CBE1D0E0E3E045
:10464000F2E0CE019927219131912817390729F0FD
:1046500022E0E335F207B9F716C0E9EBF8E0849100
:10466000EF012196882321F00E94AA18FE01F7CFBE
:10467000E9E7F5E08491EF0121968823B1F00E94EB
:10468000AA18FE01F7CF61E08C2F0E9484C6602F2C
:104690008C2F0E94C0C6B8018C2F0E94E3C52497BE
:1046A00021F410936F0400936E04DF91CF911F915A
:1046B0000F91089588E690E00E94541E81113AC03F
:1046C0008091580683FD36C083E50E94411E8823F1
:1046D00089F10E947E1D0E94CEC870930A116093DA
:1046E000091180E00E94EF820E947E1D20E030E0F0
:1046F0004AEA52E40E9452C818164CF084E594E04D
:104700000E940F7F60E08AE695E00E9431B80E9427
:104710007E1D209111113091121140911311509171
:1047200014110E9474CA18162CF460E08CE595E010
:104730000C9431B80895CF93DF93E0EAF6E08491CA
:10474000EF012196882321F00E94AA18FE01F7CFDD
:1047500060911111709112118091131190911411A7
:1047600041E050E00E94D419EDE9F6E08491EF01B8
:104770002196882321F00E94AA18FE01F7CF6091AC
:10478000091170910A11072E000C880B990B0E94D9
:1047900006C941E050E00E94D419E9E9F6E08491AD
:1047A000EF012196882321F00E94AA18FE01F7CF7D
:1047B00060910D1170910E1180910F119091101157
:1047C00041E050E00E94D419E6E9F6E08491EF015F
:1047D0002196882321F00E94AA18FE01F7CF60914C
:1047E000051170910611072E000C880B990B0E9481
:1047F00006C941E050E00E94D419E2E9F6E0849154
:10480000EF012196882321F00E94AA18FE01F7CF1C
:104810008091350490E00E943D806AE070E00E9443
:104820004819EDE8F6E08491EF012196882321F004
:104830000E94AA18FE01F7CF8FEF9FEF0E943D80E4
:104840006AE070E0DF91CF910C944819DF92EF920B
:10485000FF920F931F93CF93DF9383E50E94411E36
:10486000882319F00E94D71D01C080E0809358066C
:10487000E3EBF8E08491EF012196882321F00E9478
:10488000AA18FE01F7CFE5E5F5E08491EF01219646
:10489000882321F00E94AA18FE01F7CF80915806C4
:1048A000882389F18BE4E82E85E0F82E00E010E003
:1048B00020E08091580690E0002E02C095958795E3
:1048C0000A94E2F780FF16C0DD24D394D20E22238F
:1048D00019F08CE20E94AA18F70125913491F90190
:1048E0008491E9012196882321F00E94AA189E0153
:1048F000F6CF2D2D0F5F1F4FF2E0EF0EF11C0530AC
:104900001105B9F60BC0E7E4F5E08491EF012196BB
:10491000882321F00E94AA18FE01F7CF8AE0DF91D8
:10492000CF911F910F91FF90EF90DF900C94AA18F8
:10493000CF93DF9383E50E94411E882351F00E94AC
:10494000D71D8D3308F08CE380930001DF91CF9168
:104950000895E3EBF8E08491EF012196882321F09C
:104960000E94AA18FE01F7CF4091000150E060E0DC
:1049700070E08DE095E00E94311C8AE0DF91CF91DC
:104980000C94AA18CF93DF9383E50E94411E8823DD
:10499000F1F00E94BD1D8230B8F0E9EBF8E084919F
:1049A000EF012196882321F00E94AA18FE01F7CF7B
:1049B000E6EBF3E08491EF012196882309F48DC0A2
:1049C0000E94AA18FE01F6CF813009F444C088E4A1
:1049D0000E94411E882391F00E94BD1D8A3A9105D4
:1049E0003CF0853021E092072CF084E091E002C099
:1049F0008AEA90E09093EE138093ED1386E40E9490
:104A0000411E882381F00E94BD1D8F3F910519F042
:104A100014F08FEF90E097FF02C080E090E0909359
:104A2000EA138093E91382E40E94411E882309F46B
:104A300054C00E94BD1D8530910534F08838910521
:104A40002CF087E890E002C085E090E09093EC13B2
:104A50008093EB1342C088E40E94411E882391F0AA
:104A60000E94BD1D8A3A91053CF0853021E09207F5
:104A70002CF084E091E002C08AEA90E09093E81381
:104A80008093E71386E40E94411E882381F00E94F0
:104A9000BD1D8F3F910519F014F08FEF90E097FF47
:104AA00002C080E090E09093E4138093E31382E4EB
:104AB0000E94411E882389F00E94BD1D853091050A
:104AC00034F0883891052CF087E890E002C085E04A
:104AD00090E09093E6138093E513DF91CF910895D2
:104AE00083E50E94411E882359F00E94361E609380
:104AF00002017093030180930401909305010895CE
:104B000088E50E94411E811111C089E50E94411E65
:104B100081110CC08AE50E94411E811107C085E405
:104B20000E94411E811102C00C944D7E0E94C87DDE
:104B300088E50E94411E882319F05E9A1092320681
:104B400089E50E94411E882319F05E9A109233066F
:104B50008AE50E94411E882321F0159A109234069E
:104B6000089508954F925F926F927F92AF92BF9295
:104B7000CF92DF92EF92FF920F931F93CF9383E533
:104B8000A82E82E0B82E00E81BE0C0E0F50181917C
:104B90005F010E94411E882309F46AC0C33009F0F6
:104BA00060C00E947E1D6B017C0120E030E040EA85
:104BB00051E40E9452C887FF4BC0A7019601F8013B
:104BC00060817181828193810E945CC82B013C01CC
:104BD0009B01AC016091380B7091390B80913A0BBD
:104BE00090913B0B0E94B4CA6093380B7093390BC1
:104BF00080933A0B90933B0BA301920160919C0B25
:104C000070919D0B80919E0B90919F0B0E94B4CA56
:104C100060939C0B70939D0B80939E0B90939F0BC6
:104C200060916C0B70916D0B80916E0B90916F0B7E
:104C30000E9404C9A30192010E94B4CA0E94D5C86F
:104C400060936C0B70936D0B80936E0B90936F0B56
:104C5000C0928C0BD0928D0BE0928E0BF0928F0B4A
:104C600007C00E947E1DF801608371838283938355
:104C7000CF5F0C5F1F4FC43009F088CFCF911F91D9
:104C80000F91FF90EF90DF90CF90BF90AF907F900B
:104C90006F905F904F900C94057783E50E94411EC2
:104CA0008823D9F00E947E1DAB01BC014093440BC8
:104CB0005093450B6093460B7093470B40933C0B0E
:104CC00050933D0B60933E0B70933F0B8EE893E047
:104CD0000E94F51B8AE00E94AA1880E50E94411EEE
:104CE000882399F00E947E1DAB01BC014093440BC8
:104CF0005093450B6093460B7093470B81E793E00D
:104D00000E94F51B8AE00E94AA1882E50E94411EBB
:104D1000882399F00E947E1DAB01BC014093400B9B
:104D20005093410B6093420B7093430B82E593E0E9
:104D30000E94F51B8AE00E94AA1884E50E94411E89
:104D4000882399F00E947E1DAB01BC0140933C0B6F
:104D500050933D0B60933E0B70933F0B84E393E0C5
:104D60000E94F51B8AE00C94AA18089583E50E941E
:104D7000411E882351F00E947E1D6093480B709362
:104D8000490B80934A0B90934B0B84E50E94411E84
:104D9000882351F00E947E1D6093280B7093290B8D
:104DA00080932A0B90932B0B82E40E94411E882350
:104DB00051F00E94A71D60934C0B70934D0B809394
:104DC0004E0B90934F0B88E50E94411E882351F0B3
:104DD0000E947E1D60932C0B70932D0B80932E0BE5
:104DE00090932F0B89E50E94411E882351F00E9469
:104DF0007E1D6093300B7093310B8093320B909338
:104E0000330B8AE50E94411E882351F00E947E1DCB
:104E10006093340B7093350B8093360B9093370B64
:104E200085E40E94411E882351F00E947E1D6093FC
:104E3000380B7093390B80933A0B90933B0B08958A
:104E40008F929F92AF92BF92CF92DF92EF92FF929A
:104E50000F931F93CF93DF9383E5C82E82E0D82E64
:104E600098E4E92E96E0F92E0CE714E0C0E0D0E0DB
:104E7000F60181916F010E94411E882309F10E9471
:104E80007E1D4B015C01F8012081318142815381FB
:104E90000E945CC79B01AC01F70160817181828136
:104EA00093810E945DC7F70160837183828393833E
:104EB000F80180829182A282B382CE010E94941E68
:104EC0002196F4E0EF0EF11C0C5F1F4FC330D105AB
:104ED00079F60E944F1CDF91CF911F910F91FF90A7
:104EE000EF90DF90CF90BF90AF909F908F900C94F9
:104EF000DC19CF93DF93E3EBF8E08491EF01219687
:104F0000882321F00E94AA18FE01F7CF83E50E94B2
:104F1000411E882321F00E94061E80931301E4E2C3
:104F2000F3E08491EF012196882321F00E94AA18D2
:104F3000FE01F7CF80911301811103C0EBE1F3E093
:104F400002C0EFE1F3E08491EF012196882321F084
:104F50000E94AA18FE01F7CFE3E1F3E08491EF018C
:104F60002196882321F00E94AA18FE01F7CF4091D4
:104F7000700450917104609172047091730481E126
:104F800093E00E94F51B4091740450917504609168
:104F90007604709177048EE093E00E94F51B4091B7
:104FA00078045091790460917A0470917B048BE0CD
:104FB00093E00E94F51BE3E0F3E08491EF0121967A
:104FC000882321F00E94AA18FE01F7CF4091070123
:104FD000509108016091090170910A0181E093E00C
:104FE0000E94F51B40910B0150910C0160910D0145
:104FF00070910E018EEF92E00E94F51B40910F011F
:105000005091100160911101709112018BEF92E0AB
:105010000E94F51B8AE0DF91CF910C94AA18CF93E0
:10502000DF9300D000D0CDB7DEB783E50E94411EEC
:10503000882319F00E94CA1D02C084E091E09C837D
:105040008B8380E50E94411E882349F00E94CA1D7F
:10505000893823E1920728F088E893E102C088EEBE
:1050600093E09A838983AE014D5F5F4FBE016F5F0E
:105070007F4F86E394E00E94601B0F900F900F908B
:105080000F90DF91CF910895CF93DF9385E40E9435
:10509000411E811110C080E50E94411E882399F0B5
:1050A0000E947E1D60934C0170934D0180934E01D0
:1050B00090934F0108C00E94BD1D181619065CF799
:1050C000E9EBF8E06FC089E40E94411E882381F07B
:1050D0000E947E1D2CE933E549E45EE30E94B4CAD8
:1050E000609348017093490180934A0190934B016A
:1050F00084E40E94411E882381F00E947E1D2CE9D9
:1051000033E549E45EE30E945CC860934401709318
:10511000450180934601909347010E943C80E3EB58
:10512000F8E08491EF012196882321F00E94AA18CB
:10513000FE01F7CF40914C0150914D0160914E011D
:1051400070914F0187EF92E00E94F51B2CE933E547
:1051500049E45EE3609148017091490180914A0100
:1051600090914B010E945CC8AB01BC0183EF92E0BF
:105170000E94131C2CE933E549E45EE3609144018D
:105180007091450180914601909147010E94B4CAF7
:10519000AB01BC018FEE92E00E94131C10C00E9474
:1051A000AA18FE018491EF0121968111F8CFCFED6D
:1051B000D1E08991882319F00E94AA18FACF8AE0D9
:1051C000DF91CF910C94AA18CF93DF9383E50E94CF
:1051D000411ED82F8823A1F00E947E1D60934001BC
:1051E000709341018093420190934301C1E020E01C
:1051F00030E0A9010E9452C88111C0E0C093F710AD
:1052000080E50E94411EC82F8823A9F020E030E0ED
:10521000A9016091400170914101809142019091FA
:1052200043010E9452C8882319F00E94061EC82F0D
:10523000C093F71039C0D11137C0E3EBF8E0849187
:10524000EF012196882321F00E94AA18FE01F7CFD2
:105250008091F710811103C060EF71E002C067E137
:1052600073E08CED92E00E94981B20E030E040E07B
:105270005FE3609140017091410180914201909102
:1052800043010E945DC70E94CEC88BEC92E00E9451
:10529000BF1BE7ECF2E08491EF012196882321F017
:1052A0000E94AA18FE01F7CFDF91CF910895EF92E7
:1052B000FF920F93CF93DF9385E40E94411E8823D2
:1052C00021F00E94BD1DEC0102C0C0E0D0E083E4EB
:1052D0000E94411E882321F00E94BD1D7C0103C055
:1052E00085E0E82EF12C85E50E94411E882321F0FF
:1052F0000E94061E082F01C000E083E50E94411EA7
:10530000882319F00E947E1D06C0D7FD09C060E009
:1053100070E086E193E4209739F41092350404C0DC
:1053200060E070E08CE892E4109224041092230470
:105330009701AE010E94B28381E090E09093240433
:1053400080932304DF91CF910F91FF90EF90089508
:105350002F923F924F925F926F927F928F929F9285
:10536000AF92BF92CF92DF92EF92FF920F931F9373
:10537000CF93DF93CDB7DEB72A970FB6F894DEBF91
:105380000FBECDBF88E4282E86E0382E8CE794E04F
:105390009E838D83E5E3F6E0F887EF8300E010E07D
:1053A0008F819885855396409A878987EF81F88504
:1053B0008191F887EF83882309F4A9C0F801E95F98
:1053C000FE4F2081318142815381F801E059FB4F2A
:1053D00060817181828193810E945DC720E030E00D
:1053E00040E05FE30E94B4CA9B01AC01F10160811F
:1053F0007181828193810E9474CA181634F4C801A5
:105400008157974F0E94D61903C060E070E0CB012E
:10541000F1014080518062807380ED81FE81C08007
:10542000D180E280F380A70196010E945DC7F80158
:10543000E857FB4F20813181428153810E945DC733
:105440009B01AC01C301B2010E945CC74B015C012E
:1054500020E030E040EA51EC0E9474CA181664F56E
:1054600020E030E040EA51E4C501B4010E9452C896
:1054700087FF22C0A5019401C701B6010E945CC745
:105480004B015C01A70196010E945CC79B01AC0126
:10549000C301B2010E945DC7F10160837183828301
:1054A0009383ED81FE8180829182A282B38289857D
:1054B0009A850E94941E2BC0E9EBF8E084918F013D
:1054C0000F5F1F4F882321F00E94AA18F801F6CF22
:1054D000E9EAF2E084918F010F5F1F4F882321F0EA
:1054E0000E94AA18F801F6CF8BE992E00E9449B811
:1054F00088E290E09A83898388EC90E09C838B8398
:10550000AE014F5F5F4FBE016D5F7F4F35C0F4E06E
:105510002F0E311C0C5F1F4F8D819E8104969E8340
:105520008D830C30110509F03BCF0E944F1C0E9467
:10553000DC1960E08AE892E00E9431B883E992E0E9
:105540009C838B8308EC10E01A830983AE014D5FC6
:105550005F4FBE016F5F7F4F86E394E00E94601B48
:105560008AEB92E09C838B831A830983AE014D5FA3
:105570005F4FBE016F5F7F4F86E394E00E94601B28
:105580002A960FB6F894DEBF0FBECDBFDF91CF9144
:105590001F910F91FF90EF90DF90CF90BF90AF9051
:1055A0009F908F907F906F905F904F903F902F9043
:1055B0000895CF93DF9380936D04E3EBF8E084913B
:1055C000EF012196882321F00E94AA18FE01F7CF4F
:1055D00060916D0470E08BE796E00E94BF1B8AE04B
:1055E000DF91CF910C94AA18CF93DF930E94951A64
:1055F000E091A904F0E0EB5DFB4F8081882381F00E
:10560000EEE7F2E08491EF012196882321F00E94D9
:10561000AA18FE01F7CF8AE0DF91CF910C94AA1867
:10562000DF91CF910895CF93DF930E94A218E1E814
:10563000F2E08491EF012196882321F00E94AA18BC
:10564000FE01F7CF80912A0690912B06A0912C069F
:10565000B0912D06BC01CD016F5F7F4F8F4F9F4FE3
:105660004AE050E00E943B198AE00E94AA18DF91AC
:10567000CF910C94F42AEF92FF920F931F93CF9344
:10568000DF931F92CDB7DEB7082F162FE9EBF8E0B6
:1056900084917F012FEFE21AF20A882331F0998377
:1056A0000E94AA18F7019981F3CFE02FF92F849176
:1056B0007F019FEFE91AF90A882321F00E94AA18B6
:1056C000F701F5CF60912A0670912B0680912C0688
:1056D00090912D064AE050E00E943B198AE00E941A
:1056E000AA1811110E94132B10926B0410926A04D5
:1056F0000F90DF91CF911F910F91FF90EF90089540
:10570000CF92DF92EF92FF92CF93DF93EC01C090A4
:105710007004D0907104E0907204F0907304A701BB
:105720009601688179818A819B810E9452C887FF96
:1057300004C0C882D982EA82FB82C0907404D090EF
:105740007504E0907604F0907704A70196016C81CF
:105750007D818E819F810E9452C887FF04C0CC82C8
:10576000DD82EE82FF82C0907804D0907904E090D0
:105770007A04F0907B04A7019601688579858A8573
:105780009B850E9452C887FF04C0C886D986EA86D6
:10579000FB86C0900701D0900801E0900901F090CD
:1057A0000A01A7019601688179818A819B810E9403
:1057B00074CA181624F4C882D982EA82FB82C09087
:1057C0000B01D0900C01E0900D01F0900E01A701AB
:1057D00096016C817D818E819F810E9474CA18160A
:1057E00024F4CC82DD82EE82FF82C0900F01D09043
:1057F0001001E0901101F0901201A7019601688557
:1058000079858A859B850E9474CA181624F4C886F7
:10581000D986EA86FB86DF91CF91FF90EF90DF90EB
:10582000CF900895CF93DF9380E090E00E94377E81
:10583000C9E2D4E0688379838A839B8381E090E026
:105840000E94377E6C837D838E839F8382E090E00D
:105850000E94377E688779878A879B87DF91CF91FF
:1058600008950E94517E0E94C87D0E94122C0E94C1
:105870003E1A0C944F1CCF92DF92EF92FF92CF937F
:10588000DF9388E396E00E94802B0E94951A809116
:10589000580683FD8FC0C0904406D0904506E09026
:1058A0004606F090470620915406309155064091E7
:1058B000560650915706C701B6010E9452C8882368
:1058C00009F478C08091F710811132C02091400115
:1058D0003091410140914201509143016091111179
:1058E0007091121180911311909114110E9452C85D
:1058F00087FF1EC0C0925406D0925506E09256060D
:10590000F0925706E3EBF8E08491EF0121968823AB
:1059100021F00E94AA18FE01F7CFE3E6F2E084919D
:10592000EF012196882321F00E94AA18FE01F7CFEB
:10593000C0904406D0904506E0904606F090470699
:1059400020915406309155064091560650915706C5
:10595000C701B6010E945CC70E94CEC897FF07C06E
:1059600090958095709561957F4F8F4F9F4F693CC3
:10597000710581059105F4F0C0925406D092550648
:10598000E0925606F0925706E3EBF8E08491EF01BF
:105990002196882321F00E94AA18FE01F7CFE4E4A3
:1059A000F2E08491EF012196882321F00E94AA1849
:1059B000FE01F7CF209138063091390640913A0622
:1059C00050913B06609148067091490680914A06C5
:1059D00090914B060E9452C881111DC020913C0637
:1059E00030913D0640913E0650913F0660914C0635
:1059F00070914D0680914E0690914F060E9452C8BC
:105A0000811109C0609120017091210180912201D2
:105A1000909123011AC060911E0170911F01072E01
:105A2000000C880B990B0E9406C92091200130912F
:105A3000210140912201509123010E94B4CA2AE021
:105A400037ED43E25CE30E94B4CA0E94EA1FDF9193
:105A5000CF91FF90EF90DF90CF900C940320CF92E6
:105A6000DF92EF92FF9220919404222351F16B0177
:105A70007C0120E030E0A9010E9452C8882309F18E
:105A80002BED3FE049E450E4C701B6010E94B4CADF
:105A900020E030E040E05FE30E94B4CAA701960135
:105AA0000E94B4CA20E030E040E05FE30E94B4CA44
:105AB0009B01AC0160E070E080E89FE30E945CC85D
:105AC00004C060E070E080E89FE3FF90EF90DF901B
:105AD000CF900895609118017091190180911A0179
